:020000040800F2
:1000000000000220512000081515000817150008EF
:10001000191500081B1500081D1500080000000038
:10002000000000000000000000000000314B00084C
:100030001F15000800000000D14B0008354C0008D7
:10004000A1200008A1200008A1200008A12000088C
:10005000A1200008A1200008A1200008A12000087C
:10006000A1200008A1200008A1200008A12000086C
:10007000A1200008A1200008A1200008A12000085C
:100080002115000831150008A1200008A120000852
:10009000A1200008A1200008A1200008A12000083C
:1000A000A120000841150008A1200008A120000897
:1000B000A1200008A1200008A1200008A12000081C
:1000C000A1200008A1200008A1200008A12000080C
:1000D000A12000085115000861150008E11500086D
:1000E000A1200008A1200008A1200008A1200008EC
:1000F000A1200008A1200008A1200008A1200008DC
:10010000A1200008A1200008A1200008A1200008CB
:10011000A1200008A1200008A1200008A1200008BB
:10012000A1200008A1200008F1150008A120000866
:10013000A1200008A1200008A1200008A12000089B
:10014000A1200008A1200008A1200008A12000088B
:10015000A1200008A120000801160008A120000825
:10016000A1200008A1200008A1200008A12000086B
:10017000A1200008A1200008A12000080000000024
:08018000A1200008A1200008E5
:1001900010B5054C237833B9044B13B10448AFF3C1
:1001A00000800123237010BD700C002000000000AF
:1001B0001073000808B5034B1BB103490348AFF3A4
:1001C000008008BD00000000740C002010730008BF
:1001D00081F0004102E000BF83F0004330B54FEAF8
:1001E00041044FEA430594EA050F08BF90EA020F65
:1001F0001FBF54EA000C55EA020C7FEA645C7FEAF8
:10020000655C00F0E2804FEA5454D4EB5555B8BF1A
:100210006D420CDD2C4480EA020281EA030382EA8B
:10022000000083EA010180EA020281EA0303362D1D
:1002300088BF30BD11F0004F4FEA01314FF4801CF0
:100240004CEA113102D0404261EB410113F0004F02
:100250004FEA03334CEA133302D0524263EB4303B9
:1002600094EA050F00F0A780A4F10104D5F1200E57
:100270000DDB02FA0EFC22FA05F2801841F10001B2
:1002800003FA0EF2801843FA05F359410EE0A5F186
:1002900020050EF1200E012A03FA0EFC28BF4CF0B7
:1002A000020C43FA05F3C01851EBE37101F000456D
:1002B00007D54FF0000EDCF1000C7EEB00006EEB7A
:1002C0000101B1F5801F1BD3B1F5001F0CD3490804
:1002D0005FEA30004FEA3C0C04F101044FEA44525B
:1002E00012F5800F80F09A80BCF1004F08BF5FEAE2
:1002F000500C50F1000041EB045141EA050130BDC2
:100300005FEA4C0C404141EB0101013C28BFB1F5D3
:10031000801FE9D291F0000F04BF01460020B1FA1E
:1003200081F308BF2033A3F10B03B3F120020CDAF1
:100330000C3208DD02F1140CC2F10C0201FA0CF0CF
:1003400021FA02F10CE002F11402D8BFC2F1200C34
:1003500001FA02F120FA0CFCDCBF41EA0C019040EA
:10036000E41AA2BF01EB0451294330BD6FEA040433
:100370001F3C1CDA0C340EDC04F11404C4F120021E
:1003800020FA04F001FA02F340EA030021FA04F330
:1003900045EA030130BDC4F10C04C4F1200220FA87
:1003A00002F001FA04F340EA0300294630BD21FAC5
:1003B00004F0294630BD94F0000F83F4801306BF8B
:1003C00081F480110134013D4EE77FEA645C18BF7F
:1003D0007FEA655C29D094EA050F08BF90EA020F16
:1003E00005D054EA000C04BF1946104630BD91EA0E
:1003F000030F1EBF0021002030BD5FEA545C05D111
:100400004000494128BF41F0004130BD14F580044F
:100410003CBF01F5801130BD01F0004545F0FE41C3
:1004200041F470014FF0000030BD7FEA645C1ABFF8
:10043000194610467FEA655C1CBF0B46024650EA2F
:10044000013406BF52EA033591EA030F41F400215B
:1004500030BD00BF90F0000F04BF0021704730B5E1
:100460004FF4806404F132044FF000054FF00001B6
:1004700050E700BF90F0000F04BF0021704730B577
:100480004FF4806404F1320410F0004548BF40424C
:100490004FF000013EE700BF42004FEAE2014FEAA1
:1004A00031014FEA02701FBF12F07F4393F07F4F7C
:1004B00081F06051704732F07F4208BF704793F07F
:1004C0007F4F04BF41F40021704730B54FF4607492
:1004D00001F0004521F000411CE700BF50EA010295
:1004E00008BF704730B54FF000050AE050EA01023E
:1004F00008BF704730B511F0004502D5404261EBAE
:1005000041014FF4806404F132045FEA915C3FF4EE
:10051000D8AE4FF003025FEADC0C18BF03325FEA8B
:10052000DC0C18BF033202EBDC02C2F1200300FA3C
:1005300003FC20FA02F001FA03FE40EA0E0021FA61
:1005400002F11444BDE600BF70B54FF0FF0C4CF44F
:10055000E06C1CEA11541DBF1CEA135594EA0C0F01
:1005600095EA0C0F00F0DEF82C4481EA030621EA3C
:100570004C5123EA4C5350EA013518BF52EA033577
:1005800041F4801143F4801338D0A0FB02CE4FF029
:100590000005E1FB02E506F00042E0FB03E54FF059
:1005A0000006E1FB03569CF0000F18BF4EF0010E51
:1005B000A4F1FF04B6F5007F64F5407404D25FEA4D
:1005C0004E0E6D4146EB060642EAC62141EA555100
:1005D0004FEAC52040EA5E504FEACE2EB4F1FD0C42
:1005E00088BFBCF5E06F1ED8BEF1004F08BF5FEAC0
:1005F000500E50F1000041EB045170BD06F0004672
:1006000046EA010140EA020081EA0301B4EB5C041E
:10061000C2BFD4EB0C0541EA045170BD41F4801116
:100620004FF0000E013C00F3AB8014F1360FDEBF3B
:10063000002001F0004170BDC4F10004203C35DA17
:100640000C341BDC04F11404C4F1200500FA05F39A
:1006500020FA04F001FA05F240EA020001F000423B
:1006600021F0004110EBD37021FA04F642EB0601B1
:100670005EEA430E08BF20EAD37070BDC4F10C04DB
:10068000C4F1200500FA04F320FA05F001FA04F29F
:1006900040EA020001F0004110EBD37041F100018B
:1006A0005EEA430E08BF20EAD37070BDC4F1200596
:1006B00000FA05F24EEA020E20FA04F301FA05F2FE
:1006C00043EA020321FA04F001F0004121FA04F2A6
:1006D00020EA020000EBD3705EEA430E08BF20EA76
:1006E000D37070BD94F0000F0FD101F000464000B0
:1006F00041EB010111F4801F08BF013CF7D041EA32
:10070000060195F0000F18BF704703F00046520035
:1007100043EB030313F4801F08BF013DF7D043EA06
:100720000603704794EA0C0F0CEA135518BF95EABC
:100730000C0F0CD050EA410618BF52EA4306D1D143
:1007400081EA030101F000414FF0000070BD50EA62
:10075000410606BF1046194652EA430619D094EAEC
:100760000C0F02D150EA013613D195EA0C0F05D1D6
:1007700052EA03361CBF104619460AD181EA03012A
:1007800001F0004141F0FE4141F470014FF00000E2
:1007900070BD41F0FE4141F4780170BD70B54FF07D
:1007A000FF0C4CF4E06C1CEA11541DBF1CEA1355FD
:1007B00094EA0C0F95EA0C0F00F0A7F8A4EB0504DF
:1007C00081EA030E52EA03354FEA013100F08880D6
:1007D0004FEA03334FF0805545EA131343EA12639F
:1007E0004FEA022245EA111545EA10654FEA002654
:1007F0000EF000419D4208BF964244F1FD0404F50D
:10080000407402D25B084FEA3202B61A65EB030568
:100810005B084FEA32024FF480104FF4002CB6EB25
:10082000020E75EB030E22BFB61A754640EA0C00A5
:100830005B084FEA3202B6EB020E75EB030E22BFE5
:10084000B61A754640EA5C005B084FEA3202B6EB26
:10085000020E75EB030E22BFB61A754640EA9C00E5
:100860005B084FEA3202B6EB020E75EB030E22BFB5
:10087000B61A754640EADC0055EA060E18D04FEA73
:10088000051545EA16754FEA06164FEAC30343EA13
:1008900052734FEAC2025FEA1C1CC0D111F4801FE0
:1008A0000BD141EA00014FF000004FF0004CB6E7D9
:1008B00011F4801F04BF01430020B4F1FD0C88BF78
:1008C000BCF5E06F3FF6AFAEB5EB030C04BFB6EB83
:1008D000020C5FEA500C50F1000041EB045170BD76
:1008E0000EF0004E4EEA113114EB5C04C2BFD4EBA3
:1008F0000C0541EA045170BD41F480114FF0000E27
:10090000013C90E645EA060E8DE60CEA135594EAA2
:100910000C0F08BF95EA0C0F3FF43BAF94EA0C0FA5
:100920000AD150EA01347FF434AF95EA0C0F7FF41A
:1009300025AF104619462CE795EA0C0F06D152EA6E
:1009400003353FF4FDAE1046194622E750EA410652
:1009500018BF52EA43067FF4C5AE50EA41047FF463
:100960000DAF52EA43057FF4EBAE12E74FEA4102C6
:1009700012F5001215D211D56FF47873B3EB6252F1
:1009800012D94FEAC12343F0004343EA505311F018
:10099000004F23FA02F018BF404270474FF00000AA
:1009A000704750EA013005D111F0004008BF6FF0E8
:1009B000004070474FF00000704700BF53B94AB97C
:1009C000002908BF00281CBF4FF0FF314FF0FF3057
:1009D00000F074B9ADF1080C6DE904CE00F006F832
:1009E000DDF804E0DDE9022304B070472DE9F047AB
:1009F000089D04468E46002B4DD18A42944669D903
:100A0000B2FA82F252B101FA02F3C2F1200120FAE5
:100A100001F10CFA02FC41EA030E94404FEA1C4833
:100A2000210CBEFBF8F61FFA8CF708FB16E341EA2F
:100A3000034306FB07F199420AD91CEB030306F1B5
:100A4000FF3080F01F81994240F21C81023E6344D6
:100A50005B1AA4B2B3FBF8F008FB103344EA03447A
:100A600000FB07F7A7420AD91CEB040400F1FF338F
:100A700080F00A81A74240F207816444023840EACC
:100A80000640E41B00261DB1D4400023C5E9004305
:100A90003146BDE8F0878B4209D9002D00F0EF8088
:100AA0000026C5E9000130463146BDE8F087B3FABB
:100AB00083F6002E4AD18B4202D3824200F2F980A3
:100AC000841A61EB030301209E46002DE0D0C5E9A6
:100AD000004EDDE702B9FFDEB2FA82F2002A40F0F2
:100AE0009280A1EB0C014FEA1C471FFA8CFE0126F5
:100AF000200CB1FBF7F307FB131140EA01410EFB99
:100B000003F0884208D91CEB010103F1FF3802D23F
:100B1000884200F2CB804346091AA4B2B1FBF7F039
:100B200007FB101144EA01440EFB00FEA64508D95C
:100B30001CEB040400F1FF3102D2A64500F2BB8099
:100B40000846A4EB0E0440EA03409CE7C6F12007E8
:100B5000B34022FA07FC4CEA030C20FA07F401FA2E
:100B600006F31C43F9404FEA1C4900FA06F3B1FBB7
:100B7000F9F8200C1FFA8CFE09FB181140EA01411C
:100B800008FB0EF0884202FA06F20BD91CEB0101B9
:100B900008F1FF3A80F08880884240F28580A8F111
:100BA00002086144091AA4B2B1FBF9F009FB101163
:100BB00044EA014100FB0EFE8E4508D91CEB010101
:100BC00000F1FF346CD28E456AD90238614440EAA4
:100BD0000840A0FB0294A1EB0E01A142C846A64624
:100BE00056D353D05DB1B3EB080261EB0E0101FAAD
:100BF00007F722FA06F3F1401F43C5E9007100260A
:100C00003146BDE8F087C2F12003D8400CFA02FC5F
:100C100021FA03F3914001434FEA1C471FFA8CFE6F
:100C2000B3FBF7F007FB10360B0C43EA064300FB5F
:100C30000EF69E4204FA02F408D91CEB030300F1FD
:100C4000FF382FD29E422DD9023863449B1B89B2B4
:100C5000B3FBF7F607FB163341EA034106FB0EF33D
:100C60008B4208D91CEB010106F1FF3816D28B42EA
:100C700014D9023E6144C91A46EA004638E72E46B6
:100C8000284605E70646E3E61846F8E64B45A9D2AE
:100C9000B9EB020864EB0C0E0138A3E74646EAE71D
:100CA000204694E74046D1E7D0467BE7023B6144CB
:100CB00032E7304609E76444023842E7704700BF34
:100CC000844641EA000313F003036DD1403A41D357
:100CD00051F8043B40F8043B51F8043B40F8043B16
:100CE00051F8043B40F8043B51F8043B40F8043B06
:100CF00051F8043B40F8043B51F8043B40F8043BF6
:100D000051F8043B40F8043B51F8043B40F8043BE5
:100D100051F8043B40F8043B51F8043B40F8043BD5
:100D200051F8043B40F8043B51F8043B40F8043BC5
:100D300051F8043B40F8043B51F8043B40F8043BB5
:100D400051F8043B40F8043B51F8043B40F8043BA5
:100D5000403ABDD2303211D351F8043B40F8043B45
:100D600051F8043B40F8043B51F8043B40F8043B85
:100D700051F8043B40F8043B103AEDD20C3205D355
:100D800051F8043B40F8043B043AF9D2043208D04D
:100D9000D2071CBF11F8013B00F8013B01D30B88BF
:100DA00003806046704700BF082A13D38B078DD09D
:100DB00010F003038AD0C3F10403D21ADB071CBF6F
:100DC00011F8013B00F8013B80D331F8023B20F8D9
:100DD000023B7BE7043AD9D3013A11F8013B00F812
:100DE000013BF9D20B7803704B7843708B7883709A
:100DF0006046704710B582B0002400941A4B1A6BFD
:100E000042F480021A631A6B02F480020092009A84
:100E100001941A6B42F400121A631B6B03F4001363
:100E20000193019B22460521102001F079F9102041
:100E300001F0AEF922460521112001F071F91120CF
:100E400001F0A6F9224605213A2001F069F93A207D
:100E500001F09EF922460521462001F061F9462065
:100E600001F096F902B010BD00380240704708B595
:100E7000012003F079FCFBE708B5142003F074FCB3
:100E8000FBE7000008B504E00121134B186803F0EC
:100E90006AFD322003F068FC4FF400510F4801F066
:100EA000DFFC0028F0D04FF480410C4801F0D8FC62
:100EB00028B90221084B186803F055FDE9E74FF403
:100EC0008051064801F0CCFC0128E2D10421024BFC
:100ED000186803F048FDDCE7940C00200004024091
:100EE00000B583B010E0184B4FF4C8721A80174B4E
:100EF0004FF638721A8000224FF48061144801F0D6
:100F0000B6FC322003F030FC4FF0FF330093002397
:100F1000012207210F48006803F0A1FC0128E2D05C
:100F200002280AD00428ECD105F066FD01224FF416
:100F30004061074801F09BFCE3E700224FF40061A9
:100F4000034801F094FCDCE7686300204463002060
:100F5000000C0240940C002008B505F025FC14207C
:100F600003F002FCF9E708B505F096FE142003F043
:100F7000FBFBF9E708B54FF48061024801F07DFC06
:100F800008BD00BF000C0240034B0360034B0B6025
:100F900080231360704700BFB00E0020B00C00200B
:100FA000034B0360034B0B604FF480731360704777
:100FB000301700203013002070B5AEB003F041FCB4
:100FC000464B1860464B2C9300252D952A4601214F
:100FD0002CA803F0D1FB434E3060434B2A932B9552
:100FE0002A4601212AA803F0C7FB404C20604FF499
:100FF0007A71306803F0E2FB3221206803F0DEFBF7
:101000003B4C0DF18C0CA646BEE80F00ACE80F007F
:101010009EE807008CE80700294623A803F06FFB31
:10102000344B18600DF1700C04F11C0EBEE80F007B
:10103000ACE80F009EE807008CE8070029461CA8D2
:1010400003F05DFB2C4B18600DF1540C04F1380ECD
:10105000BEE80F00ACE80F009EE807008CE8070030
:10106000294615A803F04BFB244B18600DF1380CF2
:1010700004F1540EBEE80F00ACE80F009EE8070034
:101080008CE8070029460EA803F039FB1C4B1860BA
:101090000DF11C0C04F1700EBEE80F00ACE80F005F
:1010A0009EE807008CE80700294607A803F027FB05
:1010B000144B1860EE4604F18C0CBCE80F00AEE84F
:1010C0000F009CE807008EE807002946684603F0F9
:1010D00016FB0D4B18602EB070BD00BF940C0020A5
:1010E000750F0008A00C00206D0E0008A40C002055
:1010F00028730008AC0C00209C0C0020980C0020E9
:10110000900C0020A80C00208C0C0020F0B58DB0B5
:1011100000240794089409940A940B940194354B85
:101120001A6B42F010021A631A6B02F0100201925D
:10113000019A02941A6B42F080021A631A6B02F051
:1011400080020292029A03941A6B42F001021A631F
:101150001A6B02F001020392039A04941A6B42F094
:1011600002021A631A6B02F002020492049A0594B6
:101170001A6B42F008021A631A6B02F00802059219
:10118000059A06941A6B42F004021A631B6B03F073
:1011900004030693069B184D22464FF4007128461F
:1011A00001F065FB01224FF44061284601F05FFB2E
:1011B0004FF4805307930894022309930F4F07A914
:1011C000384601F05BFA4FF4C043079308940126B8
:1011D000099607A9384601F051FA4FF46063079366
:1011E000089609940A9407A9284601F047FA0DB019
:1011F000F0BD00BF00380240000C02400004024075
:1012000008B50B480B4B03600B4B43600023836016
:10121000C3604FF48042026143618361C361036232
:1012200001F034FB00B908BD00F04CF8FBE700BF4B
:10123000B01B002000540040A086010030B589B0EA
:101240000023039304930593069307930268144BBA
:101250009A4201D009B030BD00250195114C236B95
:1012600043F002032363236B03F002030193019B0A
:10127000C0230393122304930323069304230793A9
:1012800003A9094801F0FAF90295236C43F400130D
:101290002364236C03F400130293029BDAE700BF7C
:1012A00000540040003802400004024008B50268C3
:1012B000034B9A4200D008BD00F00EFFFBE700BFD1
:1012C0000000014072B6FEE700B595B03022002163
:1012D00008A805F07BFD0023039304930593069370
:1012E00007930193204A116C41F080511164126CF4
:1012F00002F080520192019A02931C4B1A6842F448
:1013000080421A601B6803F480430293029B01230E
:1013100008934FF48033099302220E924FF4800316
:101320000F9304231093A82111911292139308A8EC
:1013300001F08AFB98B90F2303930223049300233F
:1013400005934FF4A05306934FF480530793052160
:1013500003A801F0DFFD20B915B05DF804FBFFF72D
:10136000B1FFFFF7AFFF00BF003802400070004040
:1013700008B500F097FEFFF7A7FFFFF7C7FEFFF7DE
:1013800039FD00F0FFF900F0FDFA00F0FBFB00F082
:101390002FFC00F063FC00F0C3F900F0BFFB00F08D
:1013A000D7FBFFF72DFF00F065FB00F079FC1C4C2C
:1013B0000021204602F01CFB0421204602F018FB0D
:1013C0000821204602F014FB0C21204602F010FBFD
:1013D0003C21144802F08EFB45F6FF744FF0804329
:1013E0005C623C21104802F085FB104B5C62B7EE5A
:1013F000001AF7EE080AB1EE040A00210C4805F0C5
:1014000005FBB7EE001AF7EE080AB1EE040A002158
:10141000084805F0FBFAFFF7CFFD03F06BF9FEE794
:10142000E01C0020501C0020981C002000040040FC
:10143000686300204463002000B583B0002200925E
:101440000D4B596C41F480415964596C01F4804151
:10145000009100990192196C41F0805119641B6C44
:1014600003F080530193019B0F216FF0010000F006
:1014700057FE03B05DF804FB0038024030B589B078
:101480000546002401941E4B5A6C42F001025A6436
:101490005B6C03F001030193019B02A903A801F017
:1014A0000FFE01F0FDFD43001648A0FB03239B0C3B
:1014B000013B1548154A026040F2E732C2604360C2
:1014C00004618460846102F043F8044610B1204650
:1014D00009B030BD0C4801F0D5FE04460028F6D115
:1014E000192000F055FE0F2D01D90124EFE700224D
:1014F0002946192000F014FE054B1D60E7E700BFE8
:101500000038024083DE1B43041C00200000014021
:1015100020040020FEE7FEE7FEE7FEE7FEE7704757
:1015200008B5024800F0BAFF08BD00BF3C2000200B
:1015300008B5024800F0B2FF08BD00BF9C200020A3
:1015400008B5024801F0E8FE08BD00BF041C0020F9
:1015500008B5024802F05CFE08BD00BFFC20002078
:1015600010B582B0174C204602F052FE23681A686C
:10157000154B934301D002B010BD00224FF400611F
:10158000124801F074F900230193204623681A6879
:1015900001925B680193019B02F0C2FC0C4B1B683B
:1015A0005A68C2F5807292B20A494A800A4C01F523
:1015B0008271204602F072FCFF220849204603F0A7
:1015C00047F8D8E74421002010000010000C02402A
:1015D0007C1F002004000020FC200020741E00203E
:1015E00008B5024802F014FE08BD00BF8C2100209F
:1015F00008B5024800F052FF08BD00BF7C1F002064
:1016000008B5024800F04AFF08BD00BFDC1F0020FB
:1016100070B50C46194B984203D0194B984214D020
:1016200070BD184E1D460A463146184602F036FC7B
:1016300040F20B223146284603F01DF8124B1A687F
:10164000136823F008031360EAE7104D0A462946A1
:101650000A4802F023FC40F20B222946084803F016
:101660000AF80B4B1A68136823F008031360A5F5FA
:1016700082756C80012385F80432D1E7FC200020BC
:1016800044210020741E00207C1F0020080100203F
:101690003C2000200268084B9A4200D0704710B5E9
:1016A000064CD4F808329847012204F582710448A8
:1016B00002F069FF10BD00BF00480040100200208A
:1016C0008C21002010B503460C4A0D490D480068D6
:1016D00040B10C4800680344521A934206D8094AA4
:1016E000136010BD0748084C0460F2E705F044FBA6
:1016F0000C2303604FF0FF30F3E700BF000002202F
:10170000000800004C1C002030640020034AD2F87E
:10171000883043F47003C2F88830704700ED00E071
:1017200000B58DB02422002103A805F04FFB002353
:101730000193029312484FF080420260436083603D
:101740004FF6FF72C2600361836103230393012399
:101750000593099303A901F07FFF50B9002301937A
:10176000029301A9064802F02BFA28B90DB05DF8E2
:1017700004FBFFF7A7FDF1E7FFF7A4FDF6E700BFC5
:10178000501C002000B58DB02422002103A805F0D4
:101790001DFB0023019302931148124A026043602B
:1017A00083604FF6FF72C26003618361032303937A
:1017B00001230593099303A901F04EFF50B90023BB
:1017C0000193029301A9064802F0FAF928B90DB075
:1017D0005DF804FBFFF776FDF1E7FFF773FDF6E731
:1017E000981C00200004004000B58BB00023059336
:1017F00006930793089309930368B3F1804F05D0CC
:10180000234A934224D00BB05DF804FB00210191E0
:1018100003F50E331A6C42F001021A641A6C02F0DE
:1018200001020192019A02911A6B42F001021A63BD
:101830001B6B03F001030293029B03230593022316
:1018400006930123099305A9124800F017FFDAE770
:1018500000210391104B1A6C42F002021A641A6CB8
:1018600002F002020392039A04911A6B42F0010201
:101870001A631B6B03F001030493049BC0230593BD
:1018800002230693099305A9024800F0F7FEBAE780
:1018900000040040000002400038024082B00368AB
:1018A000104A934204D0104A93420ED002B07047BF
:1018B000002300930D4B1A6C42F004021A641B6C57
:1018C00003F004030093009BF0E700230193074B10
:1018D0005A6C42F480325A645B6C03F48033019397
:1018E000019BE3E70008004000400140003802404F
:1018F00000B589B0002303930493059306930793DF
:1019000003681B4A934205D01A4A934219D009B082
:101910005DF804FB00230193174B1A6B42F0080299
:101920001A631B6B03F008030193019B4FF4704390
:10193000039302230493079303A9104800F09EFE2B
:10194000E5E7002302930C4B1A6B42F010021A6376
:101950001B6B03F010030293029B6023039302238B
:1019600004930323079303A9054800F087FECEE7FD
:10197000000800400040014000380240000C0240D6
:101980000010024000B58FB000230A930B930C9314
:101990000D93089309930193029303930493059382
:1019A000069307933148324A026040F28F624260E8
:1019B000836041F28732C26003618023836101F05A
:1019C000C7FD002839D14FF480530A930AA927484C
:1019D00001F080FF002833D1244801F011FE0028D7
:1019E00031D100230893099308A9204802F0E8F8B0
:1019F00060BB60230193002202920392059201A929
:101A00001A4801F0ECFE20BB04220DEB020117483E
:101A100001F0E5FE00BB082201A9144801F0DFFE39
:101A2000E8B90C2201A9114801F0D9FED0B90F483C
:101A3000FFF75EFF0FB05DF804FBFFF743FCC2E762
:101A4000FFF740FCC8E7FFF73DFCCAE7FFF73AFCA9
:101A5000CFE7FFF737FCD7E7FFF734FCDBE7FFF70B
:101A600031FCDEE7FFF72EFCE1E700BFE01C0020C1
:101A70000008004000B58DB00023089309930A9335
:101A80000B93019302930393049305930693079397
:101A90002048214A026040F28F624260836041F236
:101AA0008732C2600361836101F052FD10BB4FF4C5
:101AB0008053089308A9174801F00CFFE8B91548AE
:101AC00001F072FDE0B900220192029203920592A8
:101AD00001A9104801F054FEA8B904220DEB02013F
:101AE0000C4801F04DFE88B90A48FFF701FF0DB020
:101AF0005DF804FBFFF7E6FBD9E7FFF7E3FBDEE762
:101B0000FFF7E0FBDFE7FFF7DDFBE6E7FFF7DAFBD8
:101B1000EAE700BF281D00200040014008B50A4840
:101B20000A4B03604FF4E133436000238360C360DA
:101B300003610C2242618361C36102F07FF900B945
:101B400008BDFFF7BFFBFBE7D4210020004C00409D
:101B500008B50A480A4B03604FF4E13343600023A1
:101B60008360C36003610C2242618361C36102F040
:101B700065F900B908BDFFF7A5FBFBE71C220020B3
:101B80000050004010B51648164B03604FF4E13387
:101B9000436000238360C36003610C224261836160
:101BA000C36102F04BF968B940F20B220E490C48B0
:101BB00002F061FD0D4B1A68136823F008031360EF
:101BC00018B910BDFFF77EFBEEE7054C204602F08A
:101BD000E9F940F20B220449204602F04CFDF0E7FF
:101BE000FC20002000100140741E00207C1F0020FB
:101BF00010B51648164B03604FF4E13343600023E1
:101C00008360C36003610C2242618361C36102F09F
:101C100015F968B940F20B220E490C4802F02BFD71
:101C20000D4B1A68136823F00803136018B910BD30
:101C3000FFF748FBEEE7054C204602F0B3F940F20F
:101C40000B220449204602F016FDF0E74421002053
:101C500000440040080100203C20002008B50D4849
:101C60000D4B03604FF46143436000238360C36006
:101C700003610C2242618361C36102F0DFF828B97D
:101C800001220649034802F07EFC08BDFFF71AFB5B
:101C9000F6E700BF8C21002000480040140300201C
:101CA00008B50A480A4B03604FF4E1334360002350
:101CB0008360C36003610C2242618361C36102F0EF
:101CC000BDF800B908BDFFF7FDFAFBE7642200206C
:101CD00000140140F0B593B000230D930E930F93C1
:101CE0001093119303689D4A934214D004469C4A72
:101CF000934234D09B4A934269D09B4A934200F06E
:101D0000CA809A4A934200F04D81994A934200F06A
:101D1000758113B0F0BD00210091964B1A6C42F40E
:101D200000221A641A6C02F400220092009A0191B7
:101D30001A6B42F004021A631B6B03F00403019355
:101D4000019B4FF440630D9302230E9303231093E2
:101D5000082311930DA9884800F090FCD9E70024CE
:101D60000294844B1A6C42F480121A641A6C02F4C6
:101D700080120292029A03941A6B42F004021A63D0
:101D80001A6B02F004020392039A04941A6B42F055
:101D900008021A631B6B03F008030493049B4FF4BF
:101DA00080530D9302270E97032610960825119550
:101DB0000DA9714800F062FC04230D930E970F9457
:101DC000109611950DA96D4800F058FCA1E700256B
:101DD0000595684B5A6C42F010025A645A6C02F036
:101DE00010020592059A06951A6B42F001021A63D9
:101DF0001B6B03F001030693069B4FF4C0630D9326
:101E000002230E9303231093072311930DA95C481B
:101E100000F034FC5B485C4B03604FF000634360B0
:101E20008560C5604FF48063036145618561C5616C
:101E30004FF480330362456200F038FA28BB514BFF
:101E4000E3639C635148524B03604FF0006343606F
:101E5000402383600023C3604FF4806202614361CA
:101E60008361C3614FF480320262436200F01EFA64
:101E700070B9464BA3639C6300220A21252000F021
:101E80004FF9252000F084F943E7FFF71BFAD6E766
:101E9000FFF718FAEDE700250795364B1A6C42F468
:101EA00000321A641A6C02F400320792079A0895FD
:101EB0001A6B42F008021A631B6B03F008030893C5
:101EC000089B60230D9302230E9303231093072393
:101ED00011930DA9294800F0D1FB2E482E4B036029
:101EE0004FF0006343608560C5604FF48063036119
:101EF00045618561C5614FF400330362456200F0BE
:101F0000D5F928BB234BE3639C632448244B03602F
:101F10004FF000634360402383600023C3604FF4AD
:101F20008062026143618361C3614FF400320262E7
:101F3000436200F0BBF970B9184BA3639C630022A5
:101F40000521262000F0ECF8262000F021F9E0E63B
:101F5000FFF7B8F9D6E7FFF7B5F9EDE7004C004019
:101F60000050004000100140004400400048004084
:101F7000001401400038024000080240000C0240FA
:101F8000000002407C1F002040640240DC1F002053
:101F9000B86402403C200020886002409C20002061
:101FA000A060024000240994264B1A6C42F480225F
:101FB0001A641A6C02F480220992099A0A941A6B24
:101FC00042F002021A631B6B03F002030A930A9B9E
:101FD0004FF440630D9302230E93032310930723C2
:101FE00011930DA9184800F049FB2246052127202E
:101FF00000F096F8272000F0CBF88AE600210B913C
:10200000104B5A6C42F020025A645A6C02F02002C3
:102010000B920B9A0C911A6B42F004021A631B6B21
:1020200003F004030C930C9BC0230D9302230E9327
:1020300003231093082311930DA9044800F01EFBFD
:1020400067E600BF0038024000040240000802407A
:10205000DFF834D0FFF75AFB0C480D490D4A002336
:1020600002E0D458C4500433C4188C42F9D30A4A4D
:102070000A4C002301E013600432A242FBD304F0B7
:1020800081FEFFF775F97047000002200000002074
:102090006C0C00206C740008700C00203064002070
:1020A000FEE7000008B50B4B1A6842F400721A6094
:1020B0001A6842F480621A601A6842F480721A60E8
:1020C000032000F01BF80F20FFF7D8F9FFF7B4F951
:1020D000002008BD003C0240034A1168034B1B78F6
:1020E0000B441360704700BFAC2200201C0400208A
:1020F000014B1868704700BFAC220020074AD36824
:1021000023F4E0631B041B0C000200F4E0600343B3
:1021100043F0BF6343F40033D360704700ED00E049
:1021200000B5194BDB68C3F30223C3F1070CBCF104
:10213000040F28BF4FF0040C03F1040EBEF1060F8C
:1021400018D9033B4FF0FF3E0EFA0CFC21EA0C01BC
:1021500099400EFA03F322EA0303194300280BDB2C
:102160000901C9B200F1604000F5614080F8001338
:102170005DF804FB0023E5E700F00F000901C9B298
:10218000024B1954F4E700BF00ED00E014ED00E04D
:10219000002807DB00F01F02400901239340024A98
:1021A00042F82030704700BF00E100E030B405681D
:1021B0002C6824F480242C60046863608368402BBE
:1021C00005D0036899600368DA6030BC7047036823
:1021D0009A600368D960F8E710B40368D9B210397F
:1021E0000C4AA2FB014212090B4CA25CC2655F299A
:1021F00009D923F47F7323F0030304338365806DCF
:102200005DF8044B704723F47F7323F00303836569
:10221000F5E700BFABAAAAAA34740008836A8269F2
:1022200092B9012B0AD0022B02D00BB100207047CB
:10223000C36A13F0807F28D100207047C36AB3F1CE
:10224000C07F24D000207047B2F5005F09D0022B78
:1022500025D9032B25D1C36A13F0807F23D1002019
:102260007047032B03D8DFE803F01404140A00209E
:102270007047C36A13F0807F0DD100207047C36A96
:10228000B3F1C07F09D000207047012070470120C2
:1022900070470120704701207047012070470120DE
:1022A00070470020704701207047000070B5044659
:1022B000FFF71EFF002C5BD00546022384F8353063
:1022C000002384F834302268136823F0010313607C
:1022D00023681A6812F0010F0AD0FFF709FF431BA9
:1022E000052BF5D920236365032084F8350070BDE4
:1022F0001A68204810406168A2680A43E1680A43EE
:1023000021690A4361690A43A1690A43E1690A43F1
:10231000216A0A430243616A04291ED01A602668B2
:10232000756925F00705636A1D43042B07D1A36A6D
:102330001D43E36A1BB12046FFF770FF90B975613A
:102340002046FFF749FFE26D3F2393408360002062
:102350006065012384F83530C9E7E16A206B0143E9
:102360000A43DBE740236365012084F83500BEE7BC
:102370000120BCE73F8010F038B50446856D90F829
:10238000340001282BD0012084F8340094F8350063
:10239000C0B2012804D0002384F83430022038BDB4
:1023A000022084F83500002060652046FFF7FEFE1D
:1023B000E26D3F239340AB602268136843F016033D
:1023C0001360236C23B12268136843F00803136081
:1023D0002268136843F0010313600020DFE7022046
:1023E000DDE770B50446866DFFF782FE94F8353060
:1023F000DBB2022B06D080236365002384F83430DF
:10240000012070BD05462268136823F0160313608F
:102410002268536923F080035361236CE3B122687F
:10242000136823F0080313602268136823F0010384
:10243000136023681B6813F0010F11D0FFF758FEDB
:10244000431B052BF5D920236365032084F8350051
:10245000002384F83430D4E7A36C002BDFD1E3E70A
:10246000E26D3F239340B360012384F835300020B0
:1024700084F83400C5E790F83530DBB2022B03D086
:102480008023436501207047052380F835300268BA
:10249000136823F00103136000207047F0B583B088
:1024A000044600230193724B1D68724BA3FB053554
:1024B000AD0A876D3E68C26D08239340334210D049
:1024C00003681A6812F0040F0BD01A6822F0040295
:1024D0001A60C26D08239340BB60436D43F0010353
:1024E0004365E26D01239340334209D0226852696B
:1024F00012F0800F04D0BB60636D43F0020363658C
:10250000E26D04239340334209D02268126812F02E
:10251000020F04D0BB60636D43F004036365E26D9A
:1025200010239340334224D02268126812F0080F1F
:102530001FD0BB6023681A6812F4802F0DD01B686F
:1025400013F4002F04D1236C9BB12046984710E070
:10255000A36C73B1204698470BE01A6812F4807F91
:1025600003D11A6822F008021A60236C0BB12046CE
:102570009847E26D20239340334255D02268126879
:1025800012F0100F50D0BB6094F83530DBB2052B41
:102590000ED023681A6812F4802F33D01B6813F40E
:1025A000002F2AD1636C002B3ED0204698473BE099
:1025B0002268136823F0160313602268536923F01E
:1025C00080035361236CA3B12268136823F00803CE
:1025D0001360E26D3F239340BB60012384F83530E4
:1025E000002384F83430236D002B3FD020469847D9
:1025F0003CE0A36C002BE7D1EBE7E36BA3B12046F3
:10260000984711E01A6812F4807F09D11A6822F005
:1026100010021A60012384F83530002384F8343026
:10262000E36B0BB120469847636DFBB1636D13F00C
:10263000010F17D0052384F835302268136823F082
:1026400001031360019B01330193AB4204D823685B
:102650001B6813F0010FF5D1012384F835300023F6
:1026600084F83430E36C0BB12046984703B0F0BDDA
:1026700000000020B5814E1B406D704700230F2BDA
:1026800000F2E48070B582B060E085685E000324EB
:10269000B44025EA0405CC68B4402C438460456806
:1026A00025EA02054C68C4F300129A402A434260AE
:1026B0005AE0DC08083450F8246003F00702950063
:1026C0000F22AA4026EA020E0A69AA4042EA0E0236
:1026D00040F824205CE0072200E0002202FA0EF21B
:1026E0002A4302345A4D45F824205A4A94686FEA26
:1026F0000C0224EA0C054E6816F4801F01D04CEA47
:102700000405544CA560E46802EA04054E6816F41A
:10271000001F01D04CEA04054E4CE560646802EAF3
:1027200004054E6816F4003F01D04CEA0405494CFC
:102730006560246822404D6815F4803F01D04CEA62
:102740000402444C226001330F2B7DD801229A40B1
:102750000C6804EA020C32EA0404F4D14C6804F078
:102760000304013C012C90D94A6802F00302032AB9
:1027700009D0C4685D000322AA4024EA02048A68E2
:10278000AA402243C2604A6802F00302022A90D0A3
:1027900004684FEA430E032202FA0EF224EA02040E
:1027A0004A6802F0030202FA0EF2224302604A680B
:1027B00012F4403FC7D000220192274A546C44F4DF
:1027C00080445464526C02F480420192019A9C0845
:1027D000A51C1F4A52F8255003F003024FEA820E4F
:1027E0000F2202FA0EF225EA02051C4A90423FF43B
:1027F00074AF02F5806290421AD002F58062904276
:1028000018D002F58062904216D002F580629042A4
:1028100014D002F58062904212D002F5806290429C
:1028200010D002F5806290423FF455AF082255E780
:10283000012253E7022251E703224FE704224DE72A
:1028400005224BE7062249E702B070BD704700BF82
:1028500000380140003C01400038024000000240C6
:102860000369194201D001207047002070470AB166
:1028700081617047090481617047436901EA03027D
:1028800021EA030141EA024181617047002800F01A
:10289000CC8070B5044690F83D30002B77D02423CF
:1028A00084F83D302268136823F001031360226826
:1028B000136843F4004313602268136823F4004351
:1028C000136000F0DDFB62685A4B9A4264D85A4BA1
:1028D00098428CBF00230123002B40F0A880574969
:1028E000A1FB00318B0C25686A6822F03F0242EAA6
:1028F00091426A6021680A6A22F03F0266684D4D83
:10290000AE424FD8013313430B622168CA6922F4E7
:102910004F4222F0FF026668464B9E424CD8431E4F
:102920007600B3FBF6F3013340F6FC70034278D037
:10293000C3F30B031343CB6121680B6823F0C0037F
:10294000E269206A024313430B6021688B6823F419
:10295000034323F0FF032269E068024313438B60C3
:102960002168CB6823F0FF036269A0690243134327
:10297000CB602268136843F00103136000202064D9
:10298000202384F83D30206384F83E0070BD80F839
:102990003C30FEF753FC82E7294B98428CBF002362
:1029A000012399E74FF4967505FB03F3254DA5FB2D
:1029B00003539B090133A6E7A368BBB9451E06EB89
:1029C000460CB5FBFCF50135C5F30B05B5FA85F5ED
:1029D0006D0945BBC3B9013806EB4603B0FBF3F301
:1029E0000133C3F30B0343F40043A3E7451E06EB97
:1029F000860C0CEB8C0CB5FBFCF50135C5F30B0517
:102A0000B5FA85F56D09E4E7013806EB860303EBBB
:102A10008303B0FBF3F30133C3F30B0343F44043ED
:102A200088E7042386E7012384E70120704701201B
:102A3000ACE700BFA08601007F841E0083DE1B433D
:102A4000FF083D00D34D6210002800F0E08170B512
:102A500082B00446036813F0010F3BD09F4B9B6884
:102A600003F00C03042B2CD09C4B9B6803F00C034D
:102A7000082B21D06368B3F5803F4FD0B3F5A02F6A
:102A800052D0964B1A6822F480321A601A6822F4E7
:102A900080221A606368002B50D0FFF729FB05469F
:102AA0008E4B1B6813F4003F14D1FFF721FB401B32
:102AB0006428F5D90320B1E1884B5B6813F4800FDB
:102AC000D8D0864B1B6813F4003F03D06368002BFB
:102AD00000F09F81236813F0020F54D07F4B9B6856
:102AE00013F00C0F3ED07D4B9B6803F00C03082BBA
:102AF00033D0E368002B68D0794B01221A60FFF7CE
:102B0000F7FA0546754B1B6813F0020F54D1FFF717
:102B1000EFFA401B0228F5D903207FE16F4A1368C2
:102B200043F480331360B5E76C4B1A6842F480229B
:102B30001A601A6842F480321A60ABE7FFF7D8FADD
:102B40000546664B1B6813F4003FC3D0FFF7D0FA6D
:102B5000401B6428F5D9032060E1604B5B6813F4E7
:102B6000800FC6D15D4B1B6813F0020F03D0E368E2
:102B7000012B40F05081594A136823F0F803216972
:102B800043EAC1031360236813F0080F42D063695E
:102B90006BB3534B0122C3F8802EFFF7A9FA054609
:102BA0004E4B5B6F13F0020F34D1FFF7A1FA401BBD
:102BB0000228F5D9032031E1484A136823F0F803CD
:102BC000216943EAC1031360DDE7454B00221A6027
:102BD000FFF78EFA0546414B1B6813F0020FD2D067
:102BE000FFF786FA401B0228F5D9032016E13C4B7B
:102BF0000022C3F8802EFFF77BFA0546374B5B6F48
:102C000013F0020F06D0FFF773FA401B0228F5D924
:102C1000032003E1236813F0040F77D02F4B1B6CC4
:102C200013F0805F33D1002301932C4B1A6C42F0D8
:102C300080521A641B6C03F080530193019B0125A1
:102C4000284B1B6813F4807F23D0A368012B34D05A
:102C5000052B38D0214B1A6F22F001021A671A6F28
:102C600022F004021A67A368002B3DD0FFF740FA58
:102C700006461A4B1B6F13F0020F46D1FFF738FAC6
:102C8000801B41F288339842F3D90320C6E0002527
:102C9000D6E7144A136843F480731360FFF728FAE9
:102CA0000646104B1B6813F4807FCED1FFF720FA45
:102CB000801B0228F5D90320B0E0084A136F43F0C7
:102CC00001031367CFE7054B1A6F42F004021A673E
:102CD0001A6F42F001021A67C5E700BF00380240D0
:102CE0000000474200700040FFF702FA0646524BD0
:102CF0001B6F13F0020F08D0FFF7FAF9801B41F2A7
:102D000088339842F3D9032088E0EDB9A369002BFA
:102D100000F08380484A926802F00C02082A51D0E1
:102D2000022B17D0454B00221A66FFF7E1F9044643
:102D3000414B1B6813F0007F42D0FFF7D9F9001B0D
:102D40000228F5D9032069E03B4A136C23F0805335
:102D50001364DBE7394B00221A66FFF7C9F9054611
:102D6000354B1B6813F0007F06D0FFF7C1F9401BFD
:102D70000228F5D9032051E0E369226A1343626A0D
:102D800043EA8213A26A5208013A43EA0243E26A22
:102D900043EA0263284A5360284B01221A66FFF770
:102DA000A7F90446244B1B6813F0007F06D1FFF7F8
:102DB0009FF9001B0228F5D903202FE000202DE009
:102DC00000202BE0012B2BD01B4B5B6803F4800110
:102DD000E269914226D103F03F02216A8A4223D15F
:102DE000616A47F6C0721A40B2EB811F1ED103F42C
:102DF0004031A26A5208013AB1EB024F18D103F0F8
:102E00007063E26AB3EB026F14D1002006E0012088
:102E10007047012002E0012000E0002002B070BDF8
:102E20000120FBE70120F9E70120F7E70120F5E7A2
:102E30000120F3E70120F1E700380240000047429B
:102E400008B5314B9B6803F00C03042B57D0082BBB
:102E500057D12D4B5A6802F03F025B6813F4800F84
:102E60002AD0294B5968C1F3881C4FEA4C11B1EBA9
:102E70000C006EEB0E0E4FEA8E1343EA9063810155
:102E8000091A63EB0E03DB0043EA5173C90011EB2F
:102E90000C0C43F10003590200234FEA4C2041EA95
:102EA000DC51FDF78BFD184B5B68C3F30143013325
:102EB0005B00B0FBF3F025E0134B5968C1F3881CAD
:102EC0004FEA4C11B1EB0C006EEB0E0E4FEA8E1375
:102ED00043EA90638101091A63EB0E03DB0043EAC6
:102EE0005173C90011EB0C0C43F10003990200234C
:102EF0004FEA8C2041EA9C51FDF760FDD3E703487F
:102F000000E0034808BD00BF0038024000127A000C
:102F10000024F400002800F09B8070B50D460446A4
:102F20004F4B1B6803F007038B4208D2CBB24C4ACD
:102F30001370136803F007038B4240F08B80236803
:102F400013F0020F17D013F0040F04D0454A936812
:102F500043F4E0539360236813F0080F04D0414A10
:102F6000936843F4604393603E4A936823F0F00310
:102F7000A1680B439360236813F0010F32D063689C
:102F8000012B21D09A1E012A25D9364A126812F047
:102F9000020F61D033498A6822F0030213438B6029
:102FA000FFF7A6F806462F4B9B6803F00C036268F8
:102FB000B3EB820F16D0FFF79BF8801B41F28833EA
:102FC0009842F0D9032042E0264A126812F4003FEA
:102FD000E0D101203BE0234A126812F0007FD9D1F2
:102FE000012034E01E4B1B6803F00703AB4207D9F6
:102FF000EAB21B4B1A701B6803F00703AB422DD1DA
:10300000236813F0040F06D0164A936823F4E053A4
:10301000E1680B439360236813F0080F07D0114A4F
:10302000936823F46043216943EAC1039360FFF787
:1030300007FF0C4B9B68C3F303130B4AD35CD840C8
:103040000A4B18600A4B1868FEF718FA002070BD8A
:10305000012070470120FAE70120F8E70120F6E798
:10306000003C0240003802401C74000800000020B0
:1030700020040020014B1868704700BF00000020AA
:1030800008B5FFF7F7FF044B9B68C3F38223034A9D
:10309000D35CD84008BD00BF003802402C74000843
:1030A00008B5FFF7E7FF044B9B68C3F34233034ABD
:1030B000D35CD84008BD00BF003802402C74000823
:1030C0000F2303600B4B9A6802F0030242609A6878
:1030D00002F0F00282609A6802F4E052C2609B68DB
:1030E000DB0803F4E0530361034B1B6803F00703A1
:1030F0000B60704700380240003C024030B4036A65
:10310000026A22F0010202624268846924F07304B8
:103110000D682C4323F0020C8B6843EA0C03104D1E
:10312000A84203D005F58065A84205D123F0080325
:10313000CD682B4323F00403094DA84203D005F5C5
:103140008065A84205D122F440724D692A438D69F9
:103150002A43426084614A684263036230BC70471C
:103160000000014030B4036A026A22F480720262F5
:103170004268C46924F0730C0C6844EA0C0523F41B
:1031800000738C6843EA0423114CA04203D004F579
:103190008064A04206D123F40063CC6843EA042390
:1031A00023F480630A4CA04203D004F58064A0425B
:1031B00007D122F440524C6942EA04128C6942EA77
:1031C00004124260C5614A68C263036230BC704742
:1031D0000000014030B4036A026A22F480520262A5
:1031E0004468C26922F4E6420D6842EA052223F4EB
:1031F00000538D6843EA0533094DA84203D005F515
:103200008065A84204D124F480444D6944EA8514C1
:103210004460C2614A680264036230BC704700BF08
:103220000000014010B4036A046A24F0010404623F
:10323000846924F0F00C4CEA021223F00A030B43D9
:10324000826103625DF8044B704710B4036A046A3C
:1032500024F010040462846924F4704C4CEA0232B5
:1032600023F0A00343EA0113826103625DF8044B7B
:103270007047836823F070030B4343F007038360B8
:103280007047000090F83D30DBB2012B37D10223AC
:1032900080F83D300268D36843F00103D3600368CF
:1032A000194A934220D0B3F1804F1DD0A2F57C4241
:1032B000934219D002F58062934215D002F58062E4
:1032C000934211D002F5784293420DD002F570522C
:1032D000934209D0A2F59432934205D01A6842F085
:1032E00001021A60002070479A6802F00702062A5D
:1032F00007D01A6842F001021A60002070470120CE
:1033000070470020704700BF0000014070477047C1
:10331000704770477047704770B504460368DE68B1
:103320001D6915F0020F10D016F0020F0DD06FF0CE
:1033300002021A610123037703689B6913F0030FEC
:103340005ED0FFF7E6FF0023237715F0040F12D0BD
:1033500016F0040F0FD023686FF004021A610223E5
:10336000237723689B6913F4407F4FD02046FFF7F3
:10337000D0FF0023237715F0080F12D016F0080FA6
:103380000FD023686FF008021A61042323772368A3
:10339000DB6913F0030F40D02046FFF7BAFF00238C
:1033A000237715F0100F12D016F0100F0FD02368EE
:1033B0006FF010021A61082323772368DB6913F486
:1033C000407F31D02046FFF7A4FF0023237715F07C
:1033D000010F02D016F0010F2DD115F0800F02D091
:1033E00016F0800F2FD115F0400F02D016F0400FCD
:1033F00031D115F0200F02D016F0200F33D170BD5F
:10340000FFF786FF2046FFF785FF9CE72046FFF782
:103410007FFF2046FFF77EFFABE72046FFF778FFF0
:103420002046FFF777FFBAE72046FFF771FF2046F7
:10343000FFF770FFC9E723686FF001021A612046A9
:10344000FDF734FFC9E723686FF080021A61204658
:1034500000F0FDFBC7E723686FF040021A612046C9
:10346000FFF759FFC5E723686FF020021A61204675
:1034700000F0ECFBC3E700000368344A904212D02E
:10348000B0F1804F0FD0A2F57C4290420BD002F5F4
:103490008062904207D002F58062904203D002F52C
:1034A0007842904203D123F070034A681343274ABD
:1034B00090422AD0B0F1804F27D0A2F57C429042B2
:1034C00023D002F5806290421FD002F580629042C4
:1034D0001BD002F57842904217D002F5705290420C
:1034E00013D002F5806290420FD002F580629042C4
:1034F0000BD0A2F59832904207D002F5806290423C
:1035000003D002F58062904203D123F44073CA686D
:10351000134323F080034A69134303608B68C3623B
:103520000B688362094B984203D003F5806398428D
:1035300001D10B69036301234361036913F0010F98
:1035400003D0036923F001030361704700000140C9
:1035500040B310B5044690F83D30F3B1022384F82F
:103560003D30214651F8040BFFF786FF012384F814
:10357000463084F83E3084F83F3084F8403084F898
:10358000413084F8423084F8433084F8443084F881
:10359000453084F83D30002010BD80F83C30FEF707
:1035A0007DF9DBE70120704740B310B5044690F881
:1035B0003D30F3B1022384F83D30214651F8040B2D
:1035C000FFF75AFF012384F8463084F83E3084F830
:1035D0003F3084F8403084F8413084F8423084F839
:1035E000433084F8443084F8453084F83D3000207E
:1035F00010BD80F83C30FFF789FEDBE70120704703
:1036000040B310B5044690F83D30F3B1022384F87E
:103610003D30214651F8040BFFF72EFF012384F8BB
:10362000463084F83E3084F83F3084F8403084F8E7
:10363000413084F8423084F8433084F8443084F8D0
:10364000453084F83D30002010BD80F83C30FFF755
:103650005EFEDBE701207047002856D0F8B50D4626
:10366000044690F83D30002B4AD0022384F83D30C8
:103670002268936823F4804323F007039360214674
:1036800051F8040BFFF7F8FE21688A688B690E6A0F
:103690002868104323F4407C2CF0030CAA68AB6923
:1036A00042EA032343EA0C0323F47C4323F0FC03A4
:1036B000EA69EF6847EA022C4CEA030C2A6A130312
:1036C0002A6943EA021343EA0C0326F0AA066A6851
:1036D0006D6942EA05123243886021688B61236874
:1036E0001A62012384F8463084F83E3084F83F3073
:1036F00084F8423084F8433084F83D300020F8BD2F
:1037000080F83C30FEF770F8AFE70120704700000A
:1037100030B4036A026A22F01002026244688269CD
:1037200022F4E6420D6842EA052223F020038D6868
:1037300043EA0513114DA84203D005F58065A84260
:1037400006D123F08003CD6843EA051323F040033C
:103750000A4DA84203D005F58065A84207D124F49C
:1037600040644D6944EA85048D6944EA85044460F7
:1037700082614A688263036230BC70470000014086
:1037800090F83C30012B28D010B50446012380F876
:103790003C300C2A1CD8DFE802F0071B1B1B0C1B5B
:1037A0001B1B111B1B1B16000068FFF7A7FC00204A
:1037B0000FE00068FFF7ACFF00200AE00068FFF7A9
:1037C000D1FC002005E00068FFF704FD002000E0C8
:1037D0000120002384F83C3010BD0220704738B52A
:1037E00090F83C30012B66D004460D46012380F84A
:1037F0003C300C2A5AD8DFE802F0075959591B59B6
:1038000059593059595944000068FFF777FC22682C
:10381000936943F0080393612268936923F00403DA
:1038200093612268936929690B43936100203EE00C
:103830000068FFF76DFF2268936943F400639361AA
:103840002268936923F480639361226893692969EC
:1038500043EA01239361002029E00068FFF782FC1E
:103860002268D36943F00803D3612268D36923F047
:103870000403D3612268D36929690B43D361002013
:1038800015E00068FFF7A6FC2268D36943F40063E3
:10389000D3612268D36923F48063D3612268D3693A
:1038A000296943EA0123D361002000E001200023BD
:1038B00084F83C3038BD0220FCE710B4846824F45E
:1038C0007F4C42EA03220A4342EA0C0282605DF81E
:1038D000044B704790F83C30012B78D010B504466B
:1038E000012380F83C30022380F83D300268936861
:1038F00023F47F4323F0770393600B68602B4CD055
:1039000029D8402B54D00CD9502B22D1CA684968F1
:103910000068FFF787FC50212068FFF7AAFC002011
:1039200005E0202B0DD009D9302B0AD0012001232E
:1039300084F83D30002384F83C3010BD0BB1102BCF
:1039400005D119462068FFF794FC0020EFE701201D
:10395000EDE70120EBE7B3F5805F34D0B3F5005F0E
:103960000CD1CB684A6889680068FFF7A6FF226817
:10397000936843F4804393600020D8E7702B24D1F0
:10398000CB684A6889680068FFF797FF22689368E8
:1039900043F0770393600020C9E7CA68496800686C
:1039A000FFF753FC60212068FFF763FC0020BEE7AF
:1039B000CA6849680068FFF735FC40212068FFF7B6
:1039C00058FC0020B3E70020B1E70120AFE7022058
:1039D000704701F01F01012303FA01FC036A23EA87
:1039E0000C030362036A02FA01F10B43036270479E
:1039F00010B504460846002942D194F83E30DBB2A7
:103A0000013B18BF0123002B6ED1002851D10223A6
:103A100084F83E30012201462068FFF7DAFF236870
:103A2000334A934203D002F58062934203D15A6C29
:103A300042F400425A6423682D4A934249D0B3F1BC
:103A4000804F46D0A2F57C42934242D002F580627C
:103A500093423ED002F5806293423AD002F578421A
:103A6000934236D002F57052934232D0A2F594328E
:103A700093422ED01A6842F001021A60002032E010
:103A8000042908D008290DD094F84130DBB2013B5D
:103A900018BF0123B7E794F83F30DBB2013B18BFF2
:103AA0000123B0E794F84030DBB2013B18BF01239B
:103AB000A9E7042805D0082807D0022384F841305C
:103AC000A8E7022384F83F30A4E7022384F84030BB
:103AD000A0E79A6802F00702062A07D01A6842F0A7
:103AE00001021A60002010BD0120FCE70020FAE767
:103AF0000000014038B5044690F83E00C0B294F88A
:103B00003F3094F84220D2B294F843C00D46B1B988
:103B1000012849D1012A48D1022384F83E3084F893
:103B200042307DB3042D39D0012200212068FFF7F7
:103B300050FF012204212068FFF74BFF27E0DBB292
:103B40005FFA8CFC042912D0012833D1012B2CD12F
:103B5000012A31D1BCF1010F30D1022384F83E306B
:103B600084F83F3084F8423084F84330D9E7012BA1
:103B70001CD1BCF1010F1BD1022384F83F3084F823
:103B80004330CEE7012200212068FFF722FF2268A0
:103B9000136843F001031360002006E001220421B2
:103BA0002068FFF716FFF2E7012038BD0120FCE78F
:103BB0001846FAE70120F8E71846F6E71046F4E75A
:103BC00090F83C30012B3DD010B4012380F83C30FC
:103BD000022380F83D3003685A689C6822F0700C1C
:103BE0000A6842EA0C025A600368174A93421AD0E4
:103BF000B3F1804F17D0A2F57C42934213D002F567
:103C0000806293420FD002F5806293420BD002F59E
:103C10007842934207D002F57052934203D0A2F546
:103C20009432934204D124F080044A6814439C6087
:103C3000012380F83D30002380F83C3018465DF8C1
:103C4000044B7047022070470000014070477047E6
:103C5000026802F10C0353E8003F23F0C0030C326A
:103C600042E800310029F3D1202380F84130704729
:103C7000026802F10C0353E8003F23F490730C3206
:103C800042E800310029F3D1026802F1140353E83D
:103C9000003F23F00103143242E800310029F3D140
:103CA000036B012B05D0202380F8423000230363EF
:103CB0007047026802F10C0353E8003F23F0100341
:103CC0000C3242E800310029F3D1ECE790F84130A2
:103CD000DBB2212B01D0022070478368B3F5805FEF
:103CE00017D0036A5A1C02621A7803685A60C38CA0
:103CF0009BB2013B9BB2C3844BB90268D36823F0EB
:103D00008003D3600268D36843F04003D36000208F
:103D100070470369002BE4D1036A1B880268C3F370
:103D200008035360036A02330362E0E738B50446D0
:103D30000268136923F44053C1680B43136183681D
:103D40000269134342691343C2691A430168CB688D
:103D500023F4164323F00C031343CB60026853692A
:103D600023F4407381690B4353610368314A9342E2
:103D700006D002F58062934202D0FFF781F901E09C
:103D8000FFF78EF9E369B3F5004F29D0002103183E
:103D900049411B1841F10001C90041EA5371DB00A0
:103DA000181863684FEA83024FEA937341F10001E8
:103DB000FCF704FE204DA5FB00325109642303FBF0
:103DC00011031B013233A5FB03235B0903F0F0024F
:103DD00002EB011203F00F03216813448B6038BD1E
:103DE0000023021843EB0301121841F10001C9003E
:103DF00041EA5271D200101841F100016268921834
:103E00005B41FCF7DBFD0C4DA5FB0032510964233F
:103E100003FB1103DB003233A5FB03235B095A00CC
:103E200002F4F87202EB011203F007032168134455
:103E30008B60D4E7001001401F85EB5160B310B5D3
:103E4000044690F8413013B3242384F841302268AB
:103E5000D36823F40053D3602046FFF767FF22683E
:103E6000136923F4904313612268536923F02A03F2
:103E700053612268D36843F40053D3600020606428
:103E8000202384F8413084F84230606310BD80F80C
:103E90004030FDF71FFFD7E70120704738B590F895
:103EA0004130DBB2202B30D1044600292FD00AB993
:103EB000012038BD01628284C28400234364212032
:103EC00084F84100A06B134DC563A06B124D0564CF
:103ED000A06B124DC564A06B036520681346021DDC
:103EE000A06BFEF749FA23686FF040021A6022685F
:103EF00002F1140353E8003F43F08003143242E818
:103F000000310029F3D10020D3E70220D1E70120BE
:103F1000CFE700BF4D400008B5400008C34000088F
:103F200010B5044603685A6990F84130DBB2212B82
:103F30000AD023685A6902F0400294F84230DBB29A
:103F4000222B19D0002010BD02F08002002AF0D0F0
:103F5000226802F1140353E8003F23F08003143277
:103F600042E800310029F3D1A06B08B1FEF739FA1D
:103F70002046FFF76DFEDCE7002AE3D0226802F15D
:103F8000140353E8003F23F04003143242E80031A9
:103F90000029F3D1E06B08B1FEF723FA2046FFF7C2
:103FA00067FECFE710B50446226802F10C0353E820
:103FB000003F23F490730C3242E800310029F3D122
:103FC000226802F1140353E8003F23F00103143286
:103FD00042E800310029F3D1236B012B1FD0236865
:103FE0005B6913F0400F13D0226802F1140353E809
:103FF000003F23F04003143242E800310029F3D19E
:10400000E36B2BB100221A65E06BFEF7EAF998B971
:104010000020E085202384F84230206310BD226810
:1040200002F10C0353E8003F23F010030C3242E886
:1040300000310029F3D1D2E7E06BFEF71DFB202809
:10404000E6D1102363640320E8E7704708B5034610
:10405000806B1B681B6813F4807F1AD10023C38414
:10406000026802F1140353E8003F23F08003143286
:1040700042E800310029F3D1026802F10C0353E851
:10408000003F43F040030C3242E800310029F3D1F5
:1040900008BDFFF7DAFFFBE708B50168CA6822F040
:1040A0004002CA60202280F84120FFF7CEFF0020A6
:1040B00008BD704708B5806BFFF7FBFF08BD704770
:1040C000704710B5846B23685A6994F84130DBB2AD
:1040D000212B10D023685A6902F0400294F8423034
:1040E000DBB2222B11D0636C43F0100363642046D3
:1040F000FFF7E6FF10BD02F08002002AEAD000239D
:10410000E3842046FFF7A4FDE4E7002AEBD0002378
:10411000E3852046FFF7ACFDE5E708B5806B00239B
:10412000C385C384FFF7CCFF08BD90F84230DBB2F3
:10413000222B69D18368B3F5805F4FD0826AB3F5D3
:10414000805F04D0002B56D10369002B53D1036844
:104150005B681370836A01338362C38D9BB2013B3A
:104160009BB2C385002B51D100B583B00268D368E0
:1041700023F02003D3600268D36823F48073D360F4
:104180000268536923F001035361202380F8423011
:1041900000234363036B012B33D1002303630268C5
:1041A00002F10C0353E8003F23F010030C3242E805
:1041B00000310029F3D103681A6812F0100F06D0FD
:1041C000002201921A6801925B680193019B818D24
:1041D000FDF71EFA002003B05DF804FB0269002A17
:1041E000ACD1826A03685B68C3F308031380836AF7
:1041F00002338362B1E703685B6803F07F031370E7
:10420000A8E7FDF747FAE5E702207047002070476E
:1042100030B583B0044602681368D068516913F062
:104220000F0505D113F0200F02D010F0200F19D187
:104230002DB111F0010119D110F4907F16D1216B2D
:1042400001297DD013F0800F03D010F0800F40F0D3
:10425000198113F0400F03D010F0400F40F0168189
:1042600003B030BD2046FFF760FFF9E713F0010F00
:1042700006D010F4807F03D0626C42F001026264C9
:1042800013F0040F04D019B1626C42F002026264B0
:1042900013F0020F04D019B1626C42F004026264A0
:1042A00013F0080F07D010F0200F00D119B1626C85
:1042B00042F008026264626C002AD1D013F0200F31
:1042C00002D010F0200F29D123685B6903F040036E
:1042D000626C12F0080F00D163B32046FFF7C8FCF0
:1042E00023685B6913F0400F20D0226802F11403A9
:1042F00053E8003F23F04003143242E80031002924
:10430000F3D1E36B73B1634A1A65E06BFEF7B3F860
:104310000028A5D0E06B036D9847A1E72046FFF782
:1043200004FFD1E72046FFF7CBFE99E72046FFF7D1
:10433000C7FE95E72046FFF7C3FE002363648FE7BF
:1043400013F0100F3FF47EAF10F0100F3FF47AAF70
:10435000002301931368019353680193019B5369F0
:1043600013F0400F52D0E26B13685B689BB2002BD6
:104370003FF476AFA18D99427FF672AFE385D369A2
:10438000B3F5807F37D0226802F10C0353E8003F79
:1043900023F480730C3242E800310029F3D1226803
:1043A00002F1140353E8003F23F00103143242E802
:1043B00000310029F3D1226802F1140353E8003FD1
:1043C00023F04003143242E800310029F3D12023C6
:1043D00084F8423000232363226802F10C0353E87F
:1043E000003F23F010030C3242E800310029F3D1E2
:1043F000E06BFDF7F6FF02236363A18DE38D9BB2B3
:10440000C91A89B22046FDF703F929E7A18DE38D8A
:104410009BB2C91A89B2E38D9BB2002B3FF420AF47
:1044200000293FF41DAF226802F10C0353E8003F5E
:1044300023F490730C3242E800300028F3D1226854
:1044400002F1140353E8003F23F00103143242E861
:1044500000300028F3D1202384F842300023236366
:10446000226802F10C0353E8003F23F010030C32E2
:1044700042E800300028F3D1022363632046FDF7B1
:10448000C7F8EDE62046FFF721FCE9E62046FFF7F6
:1044900003FEE5E61B41000808B5806B012343637A
:1044A000036B012B02D0FFF70AFE08BD818D49087E
:1044B000FDF7AEF8F9E708B50346806B1B681B688B
:1044C00013F4807F2BD10023C385026802F10C0313
:1044D00053E8003F23F480730C3242E80031002996
:1044E000F3D1026802F1140353E8003F23F0010303
:1044F000143242E800310029F3D1026802F11403BA
:1045000053E8003F23F04003143242E80031002911
:10451000F3D1202380F84230036B012B07D0002316
:104520004363036B012B0FD0FDF7B4F808BD02689D
:1045300002F10C0353E8003F23F010030C3242E871
:1045400000310029F3D1EAE7818DFDF761F8EDE74D
:1045500081628285C28500234364222380F8423031
:10456000036923B10268D36843F48073D36002689F
:10457000536943F0010353610268D36843F0200399
:10458000D3600020704708B590F84230DBB2202B92
:1045900008D149B10AB9012008BD00230363FFF720
:1045A000D7FFF9E70220F7E70120F5E730B583B040
:1045B000044613468162828500254564222280F8E4
:1045C0004220C26B1F48D063E26B1F481064E26B4D
:1045D0001E48D064E26B156520680A46011DE06B39
:1045E000FDF7CAFE019523681A6801925B68019382
:1045F000019B23695BB1226802F10C0353E8003F81
:1046000043F480730C3242E800310029F3D1226870
:1046100002F1140353E8003F43F00103143242E86F
:1046200000310029F3D1226802F1140353E8003F5E
:1046300043F04003143242E800310029F3D1002056
:1046400003B030BDB744000899440008C3400008D7
:1046500008B590F84230DBB2202B08D149B10AB935
:10466000012008BD00230363FFF7A0FFF9E7022044
:10467000F7E70120F5E790F84230DBB2202B29D193
:1046800010B582B0044639B312B9012002B010BD92
:104690000123036300234363FFF788FF0028F5D15C
:1046A000236B012B01D00120F0E700230193236845
:1046B0001A6801925B680193019B226802F10C0366
:1046C00053E8003F43F010030C3242E80031002968
:1046D000F3D1DBE7022070470120D7E7842801D01F
:1046E0000330704700207047EFF30580003818BF93
:1046F0000120704708B501F029FA002008BD2DE916
:10470000F04387B004460F464569BDB18669AEB136
:10471000D0F80480D0F80090B0F90800FFF7DEFF71
:104720000296019500903B4622694946404601F0B9
:104730009BF90590059807B0BDE8F0836568266889
:10474000D4F81080B4F90800FFF7C8FF05AB019357
:1047500000903B461FFA88F23146284601F0C1F925
:104760000128E7D00020E6E708B500B9012001F0F4
:1047700059FB002008BD000010B582B01346446804
:104780006CB1012909D00022016801940091012136
:10479000094801F053FE02B010BD0122F4E70129DF
:1047A00007D00022016800910121034801F02AFE90
:1047B000F1E70122F6E700BF4074000830B585B08C
:1047C0000446002303930D4601B90125FFF78CFF32
:1047D000D0B10023009303AB2A460921204601F003
:1047E00057FE012802D0FF2005B030BD039BC3B1A6
:1047F0004FF0E0234FF08052C3F8042DBFF34F8FEA
:10480000BFF36F8F0020EFE7002300932A460421B7
:10481000204601F03DFE012801D0FF20E4E7002002
:10482000E2E70020E0E71AB9084206D110467047D7
:1048300031EA000303D000207047012070470120B7
:10484000704738B51C2000F03DFB044628B1002518
:1048500040F8045B00F0CDF82576204638BD2DE900
:10486000F84378B10C4616461D46074611F07F48BE
:1048700011D04FF0500383F31188BFF36F8FBFF354
:104880004F8FFEE74FF0500383F31188BFF36F8F14
:10489000BFF34F8FFEE741B94FF0500383F3118808
:1048A000BFF36F8FBFF34F8FFEE701F071FC50B97C
:1048B000089B43B14FF0500383F31188BFF36F8F10
:1048C000BFF34F8FFEE701F097F9D7F800902A4623
:1048D00021464846FFF7A7FFF0B116B129EA0403C5
:1048E0003B6001F023FAB8F1000F12D048B94FF045
:1048F000E0234FF08052C3F8042DBFF34F8FBFF376
:104900006F8F01F0AFFC814610F0007F1AD029F0C4
:104910007F494846BDE8F883089B83B166B94146A4
:104920000DB141F08061089A2143381D01F00AFB66
:10493000C146DDF82080D4E74FF08071F0E7DDF864
:104940002080CEE700F006F9D7F800902A462146ED
:104950004846FFF768FF18B116B129EA04043C6025
:1049600000F01AF9D3E7F8B568B10D46044611F026
:104970007F4711D04FF0500383F31188BFF36F8F3F
:10498000BFF34F8FFEE74FF0500383F31188BFF35F
:104990006F8FBFF34F8FFEE700F10C0601F02CF98B
:1049A000206923682B4323600AE0216832EA010171
:1049B00005D111E0216841F0007101F051FB28465A
:1049C000B0420ED04568036823F07F4213F0806F39
:1049D000EBD121681142F2D013F0807FEAD0174367
:1049E000E8E7236823EA0703236001F09FF92068C2
:1049F000F8BD00F1080343604FF0FF328260C360EE
:104A0000036100230360704700230361704743681C
:104A10004B609A688A60516099600861036801334D
:104A20000360704730B40D68B5F1FF3F11D000F15D
:104A300008031C465B681A68AA42FAD963684B608F
:104A400099608C606160086103680133036030BC69
:104A500070470469F2E70369416882688A604168C7
:104A600051605A68824206D0002202611A68013AF7
:104A70001A601868704782685A60F5E782B00023B0
:104A800001930D4B1B68B3F1FF3F08D04FF050036B
:104A900083F31188BFF36F8FBFF34F8FFEE74FF0A3
:104AA000500383F31188BFF36F8FBFF34F8F019BC8
:104AB000002BFCD002B07047240400200848006896
:104AC000006880F308884FF0000080F3148862B615
:104AD00061B6BFF34F8FBFF36F8F00DF00BF0000E1
:104AE00008ED00E0DFF80C00016841F4700101609E
:104AF0007047000088ED00E04FF0807340F8043C00
:104B000021F0010140F8081C054B40F80C3C40F82E
:104B1000202C6FF0020340F8243C4438704700BF5B
:104B20007D4A0008000000000000000000000000B6
:104B3000074B19680868B0E8F04F80F30988BFF3A5
:104B40006F8F4FF0000080F311887047AFF3008043
:104B5000185F00204FF0500383F31188BFF36F8F6D
:104B6000BFF34F8F0B4A136801331360012B00D042
:104B700070474FF0E023D3F8043D13F0FF0FF7D058
:104B80004FF0500383F31188BFF36F8FBFF34F8F44
:104B9000FEE700BF24040020094B1B6843B94FF017
:104BA000500383F31188BFF36F8FBFF34F8FFEE77E
:104BB000013B034A13600BB983F31188704700BFB0
:104BC000240400200000000000000000000000009D
:104BD000EFF30980BFF36F8F154B1A681EF0100FAB
:104BE00008BF20ED108A20E9F04F10602DE9090080
:104BF0004FF0500080F31188BFF34F8FBFF36F8FDA
:104C000001F036F94FF0000080F3118809BC1968F3
:104C10000868B0E8F04F1EF0100F08BFB0EC108A23
:104C200080F30988BFF36F8F704700BFAFF3008038
:104C3000185F002008B54FF0500383F31188BFF3CD
:104C40006F8FBFF34F8F00F0E5FF28B14FF0E023E7
:104C50004FF08052C3F8042D002383F3118808BD60
:104C60004FF0E022002313619361054B1B68054957
:104C7000A1FB03139B09013B536107231361704799
:104C800000000020D34D62104FF0E023D3F8002D38
:104C90003D4B9A421CD04FF0E023D3F8002D3B4B04
:104CA0009A421ED030B583B0394B1A78D2B20192F5
:104CB000FF221A701B78DBB28DF803309DF80330A9
:104CC00003F05003334A1370334B07221A601BE082
:104CD0004FF0500383F31188BFF36F8FBFF34F8FF3
:104CE000FEE74FF0500383F31188BFF36F8FBFF3DC
:104CF0004F8FFEE7284A1368013B13609DF803308D
:104D00005B00DBB28DF803309DF8033013F0800FA9
:104D1000F0D1214B1B68032B08D04FF0500383F3D5
:104D20001188BFF36F8FBFF34F8FFEE71B021A4A44
:104D3000136003F4E0631360019BDBB2144A137049
:104D40004FF0E024D4F8203D43F47003C4F8203D34
:104D5000D4F8203D43F07043C4F8203DFFF780FFB6
:104D600000250E4B1D60FFF7BDFED4F8343F43F025
:104D70004043C4F8343FFFF7A1FE01F079F8FFF794
:104D80007DFE284603B030BD71C20F4170C20F4195
:104D900000E400E0B0220020B4220020240400201F
:104DA000EFF305830F2B0FD9114A9B5CDBB2114A3D
:104DB00012789A4208D94FF0500383F31188BFF359
:104DC0006F8FBFF34F8FFEE74FF0E023D3F80C3D1A
:104DD00003F4E063084A1268934208D94FF0500385
:104DE00083F31188BFF36F8FBFF34F8FFEE77047D8
:104DF000F0E300E0B0220020B4220020124A12F0BA
:104E0000070F1ED0D11D21F00701C1F570531344C7
:104E10000A460E480260002141601344083B23F01B
:104E200007030B48036059601960991A51601360B9
:104E3000084B1960084B1960084B4FF000421A608C
:104E400070474FF47053E4E7BC220020D05E00208E
:104E5000B8220020C45E0020C05E0020BC5E00209E
:104E6000164B1A461B688342FBD3516802EB010CB8
:104E7000844509D0416800EB010C634509D003600B
:104E8000904219D01060704740680144516010464C
:104E9000F0E710B40A4C2468A3420BD05B681944B5
:104EA000416013681B680360904200D010605DF899
:104EB000044B70470460F7E7704700BFD05E0020E6
:104EC000B822002070B5054600F096FE364B1B68F0
:104ED000A3B1364B1B681D424ED135B1083515F0D4
:104EE000070F02D025F007050835002D46D0304BBE
:104EF0001B68AB4251D32F4A146804E0FFF77EFFD2
:104F0000E7E722461C466368AB4202D22368002BC7
:104F1000F7D1254B1B68A34241D016680836236899
:104F2000136063685B1B102B10D9601910F0070F1A
:104F300008D04FF0500383F31188BFF36F8FBFF396
:104F40004F8FFEE743606560FFF78AFF626818498C
:104F50000B689B1A0B60184909688B4201D21649ED
:104F60000B60124B1B681343636000232360134ADA
:104F700013680133136002E0002600E0002600F011
:104F8000D5FE16F0070F0CD04FF0500383F31188B5
:104F9000BFF36F8FBFF34F8FFEE70026EFE70026CA
:104FA000EDE7304670BD00BFB8220020BC5E002097
:104FB000C05E0020D05E0020C45E0020C85E0020DD
:104FC000002834D038B50446A0F1080550F8043C58
:104FD000174A1268134208D14FF0500383F3118827
:104FE000BFF36F8FBFF34F8FFEE750F8081C41B13E
:104FF0004FF0500383F31188BFF36F8FBFF34F8FD0
:10500000FEE723EA020340F8043C00F0F5FD54F803
:10501000041C084A13680B4413602846FFF720FF5E
:10502000054A13680133136000F080FE38BD7047F5
:10503000BC5E0020C05E0020CC5E002010B504469F
:10504000FFF788FDA26BE36B9A4204D00024FFF7C0
:10505000A3FD204610BD0124F9E710B50446FFF773
:1050600079FDA36B23B90124FFF796FD204610BDFF
:105070000024F9E770B504461546866B026C5AB9F0
:1050800003681BB100200136A66370BD806801F083
:105090008FF80023A360F6E76DB94068FBF710FEB8
:1050A000226C636813446360A268934219D3236837
:1050B00063602846E7E7C068FBF702FE226C5142B6
:1050C000E3689B1AE3602268934202D2A3680B4410
:1050D000E360022D01D00020D5E726B1013E00207B
:1050E000D1E72846CFE70020CDE70346026C6AB13E
:1050F00010B50846D9681144D9609C68A14201D313
:105100001968D960D968FBF7DBFD10BD704738B569
:105110000546FFF71FFD95F8454064B201E0013CEC
:1051200064B2002C0ADD6B6A43B105F1240000F083
:1051300051FF0028F3D001F025F8F0E7FF2385F8B0
:105140004530FFF729FDFFF705FD95F8444064B2AF
:1051500001E0013C64B2002C0ADD2B6943B105F18A
:10516000100000F037FF0028F3D001F00BF8F0E753
:10517000FF2385F84430FFF70FFD38BD38B5E0B1A7
:105180000D460446FFF7E6FC2368E26B216C01FB49
:105190000230A0600020A0636360013A02FB01338B
:1051A000E360FF2384F8443084F84530FDB9236977
:1051B00063B9FFF7F1FC012038BD4FF0500383F3D2
:1051C0001188BFF36F8FBFF34F8FFEE704F110001C
:1051D00000F000FF0028ECD04FF0E0234FF08052A9
:1051E000C3F8042DBFF34F8FBFF36F8FE1E704F1D6
:1051F0001000FFF7FEFB04F12400FFF7FAFBD8E7ED
:1052000010B5034602980C4631B90060C3630464CC
:105210000121FFF7B3FF10BD0260F7E740B94FF07F
:10522000500383F31188BFF36F8FBFF34F8FFEE7F7
:1052300010B584B01C46844653B192B189B94FF081
:10524000500383F31188BFF36F8FBFF34F8FFEE7D7
:105250004FF0500383F31188BFF36F8FBFF34F8F6D
:10526000FEE76AB148230393039B482B13D04FF00A
:10527000500383F31188BFF36F8FBFF34F8FFEE7A7
:105280000029EFD04FF0500383F31188BFF36F8FE5
:10529000BFF34F8FFEE7039B012384F84630009451
:1052A0009DF818306046FFF7ABFF204604B010BDF4
:1052B000F0B585B0019288B10F461D460446B1B1E4
:1052C000022D20D1E36B012B1DD04FF0500383F34F
:1052D0001188BFF36F8FBFF34F8FFEE74FF050037E
:1052E00083F31188BFF36F8FBFF34F8FFEE7036C1B
:1052F000002BE5D04FF0500383F31188BFF36F8F7D
:10530000BFF34F8FFEE700F043FF064658B9019BFD
:10531000002B48D04FF0500383F31188BFF36F8FF9
:10532000BFF34F8FFEE700263DE02A463946204670
:10533000FFF7A0FE636A7BB948B14FF0E0234FF05E
:105340008052C3F8042DBFF34F8FBFF36F8FFFF769
:1053500023FC012005B0F0BD04F1240000F03AFE6A
:105360000028F4D04FF0E0234FF08052C3F8042D12
:10537000BFF34F8FBFF36F8FE9E7FFF70DFC0020FE
:10538000E8E702A800F0B0FE012619E0002384F847
:10539000443021E0002384F8453023E02046FFF725
:1053A000B6FE00F0C3FCFFF7D5FBA26BE36B9A429D
:1053B000BBD3022DB9D0019B002BDED0002EE0D054
:1053C000FFF7EAFB00F018FCFFF7C4FB94F8442059
:1053D00052B2B2F1FF3FD9D094F8452052B2B2F1A7
:1053E000FF3FD7D0FFF7D8FB01A902A800F088FE45
:1053F000D8B92046FFF722FE0028CFD0019904F14A
:10540000100000F087FD2046FFF781FE00F08EFCC3
:105410000028C8D14FF0E0234FF08052C3F8042D8C
:10542000BFF34F8FBFF36F8FBDE72046FFF76FFECF
:1054300000F07CFC00208DE72DE9F84390B10F4689
:1054400016461C460546B1B1022C20D1EB6B012B50
:105450001DD04FF0500383F31188BFF36F8FBFF35C
:105460004F8FFEE74FF0500383F31188BFF36F8F28
:10547000BFF34F8FFEE7036C002BE5D04FF05003D6
:1054800083F31188BFF36F8FBFF34F8FFEE7FFF7F2
:1054900087FCEFF311894FF0500383F31188BFF3BA
:1054A0006F8FBFF34F8FAA6BEB6B9A4206D3022C20
:1054B00004D0002089F31188BDE8F88395F8458071
:1054C0004FFA88F8AB6B224639462846FFF7D2FDE3
:1054D000B8F1FF3F06D008F101035BB285F8453013
:1054E0000120E7E76B6A0BB90120E3E705F124002F
:1054F00000F070FD18B126B101203060DAE701201C
:10550000D8E70120D6E7F0B585B0019290B10F46FB
:105510000446C1B100F03CFE064600BB019B002BD7
:105520005ED04FF0500383F31188BFF36F8FBFF34A
:105530004F8FFEE74FF0500383F31188BFF36F8F57
:10554000BFF34F8FFEE7036C002BE3D04FF0500307
:1055500083F31188BFF36F8FBFF34F8FFEE70026F1
:105560003EE039462046FFF7C0FD013DA5632369B3
:1055700023B9FFF711FB012005B0F0BD04F11000C5
:1055800000F028FD0028F4D04FF0E0234FF08052C7
:10559000C3F8042DBFF34F8FBFF36F8FE9E7FFF719
:1055A000FBFA0020E8E702A800F09EFD012621E0BA
:1055B000002384F8443029E0002384F845302BE0B0
:1055C0002046FFF7A4FD00F0B1FB09E02046FFF7FD
:1055D0009EFD00F0ABFB2046FFF73FFD00283FD1CA
:1055E000FFF7B8FAA56B002DBBD1019B002BD6D0DD
:1055F000002ED8D0FFF7D0FA00F0FEFAFFF7AAFA93
:1056000094F844305BB2B3F1FF3FD1D094F8453009
:105610005BB2B3F1FF3FCFD0FFF7BEFA01A902A8FA
:1056200000F06EFD0028D1D12046FFF716FD0028BE
:10563000C6D0019904F1240000F06CFC2046FFF76D
:1056400066FD00F073FB0028CAD14FF0E0234FF055
:105650008052C3F8042DBFF34F8FBFF36F8FBFE7A6
:10566000002089E70023072B0CD8074A52F8332083
:105670000AB10133F7E7044A42F8331002EBC303DF
:1056800058607047704700BFD85E002070B5044670
:105690000D461646FFF75EFA94F844305BB2B3F15C
:1056A000FF3F0DD094F845305BB2B3F1FF3F0BD014
:1056B000FFF772FAA36B5BB12046FFF728FD70BDC0
:1056C000002384F84430EDE7002384F84530EFE709
:1056D0003246294604F1240000F060FCECE70000AB
:1056E000084B1B681B6823B9074B4FF0FF321A6049
:1056F0007047044B1B68DB68DB685A68024B1A6012
:10570000704700BF1C5F0020E46100202DE9F047D6
:1057100007469846089DDDF824900A9C266B02F106
:105720008042013A06EB820626F00706002968D07F
:105730008E464FF0000CBCF1130F0BD81EF80C2056
:1057400004EB0C0383F834201EF80C3013B10CF179
:10575000010CF0E7002384F847301F2D00D91F25E6
:10576000E562A5644FF0000AC4F84CA0201DFFF7C5
:105770004BF904F11800FFF747F92461C5F1200542
:10578000A5616462C4F878A484F87CA44FF48562AF
:10579000514604F1500001F019FB04F54F736365A5
:1057A00004F56973A36504F20C43E3650122002349
:1057B000C4E93E2343F20E33A4F800314AF6CD3358
:1057C000A4F8023141F23423A4F804314EF26D639F
:1057D000A4F806314DF6EC63A4F808310523A4F8CB
:1057E0000A310B23A4F80C31424639463046FFF704
:1057F00083F92060B9F1000F01D0C9F80040BDE87D
:10580000F087002384F83430A7E7000038B500247F
:1058100007E004EB840293000E481844FFF7E9F810
:1058200001341F2CF5D90C4D2846FFF7E2F80B4C3C
:105830002046FFF7DEF80A48FFF7DBF80948FFF7D4
:10584000D8F80948FFF7D5F8084B1D60084B1C60D5
:1058500038BD00BF245F0020B8610020CC6100206B
:10586000F06100201C620020086200201C5F002004
:10587000205F002010B50446FFF76CF9214A136839
:1058800001331360204B1B685BB1204B1B686BB965
:105890001D4B1B68DA6AE36A9A4207D81A4B1C60F0
:1058A00004E0194B1C601368012B28D0184A1368B8
:1058B00001331360E06A01238340164A11680B43E9
:1058C000136000EB8000211D134B03EB8000FFF7FA
:1058D0009EF8FFF761F90D4B1B687BB10A4B1B6803
:1058E000DA6AE36A9A4209D24FF0E0234FF080521D
:1058F000C3F8042DBFF34F8FBFF36F8F10BDFFF7B9
:1059000085FFD3E7A4610020185F00200462002017
:10591000B0610020B4610020245F002010B504466F
:10592000503001F0C9FA94F87D3463B1012B11D0E5
:10593000022B0ED04FF0500383F31188BFF36F8F0B
:10594000BFF34F8FFEE7206BFFF73AFB2046FFF7D0
:1059500037FB10BD2046FFF733FBFAE70F4B1B6800
:10596000D3B110B5FFF7F6F80D4BDB68DC68201DEE
:10597000FFF771F80B4A1368013B1360074A13687D
:10598000013B1360FFF708F92046FFF7C7FF034B01
:105990001B68002BE6D110BD704700BFA861002036
:1059A0001C620020A461002008B5FFF7D7FF074B59
:1059B0001B68012BF9D94FF0E0234FF08052C3F858
:1059C000042DBFF34F8FBFF36F8FEEE7245F0020EE
:1059D00070B504460D461D4B1E681D4B18680430FB
:1059E000FFF739F850B91A4B1B68DA6A012303FA3A
:1059F00002F218490B6823EA02030B60B4F1FF3F7F
:105A00000DD03444124B1B685C60A64210D9124B77
:105A100018680F4B19680431FFF704F870BD002DAA
:105A2000EFD00B4B196804310C48FEF7F0FFF5E797
:105A30000B4B1868064B19680431FEF7F3FF094B4E
:105A40001B68A342EAD9074B1C60E7E730620020DD
:105A5000185F0020B4610020205F00200862002051
:105A60001C5F0020E461002030B587B00B9C8CB136
:105A70000C9DC5B14FF490650495049DB5F5906FEC
:105A80001AD04FF0500383F31188BFF36F8FBFF329
:105A90004F8FFEE74FF0500383F31188BFF36F8FF2
:105AA000BFF34F8FFEE74FF0500383F31188BFF32E
:105AB0006F8FBFF34F8FFEE7049D0C9D2C63022474
:105AC00085F87D4400240394029505AC01940A9C5A
:105AD0000094FFF71BFE0C98FFF7CCFE059807B06B
